:04000000F0EF0EF01F
:101DE000000167EF0FF08B80030EE82EFED700F0A6
:101DF0008B901200046E03B002D0899C01D0898CB4
:101E000004380F0B2BEC0FF0060EE82EFED700D097
:101E100004500F0B2BEC0FF01200056E0504D8A434
:101E200006D0000E036E800EFAEC0EF00FD0020EFC
:101E30000518D8A406D0000E036EC00EFAEC0EF002
:101E400005D0000E036E800EFAEC0EF0210EE82E87
:101E5000FED700F01200026E02C001F0D8900132ED
:101E6000D8900132D8900132010E011601468C50F3
:101E70000118FD0B01188C6E02C001F0D8900132E0
:101E8000D8900132010E01168C500118FE0B01187A
:101E90008C6E02C001F0D8900132010E011601468D
:101EA00001468B500118FB0B01188B6E02C001F02C
:101EB000010E011601468B500118FD0B01188B6EA7
:101EC000F3EC0EF0030EE82EFED700F01200720EB7
:101ED000D36ED3A4FED7ADEC0FF0010E0DEC0FF0D6
:101EE000010E036E480EFAEC0EF0010E036E650E45
:101EF000FAEC0EF0010E036E6C0EFAEC0EF0010E11
:101F0000036E6C0EFAEC0EF0010E036E6F0EFAEC1F
:101F10000EF0010E036E200EFAEC0EF0010E036EB1
:101F2000570EFAEC0EF0010E036E6F0EFAEC0EF087
:101F3000010E036E720EFAEC0EF0010E036E6C0EC3
:101F4000FAEC0EF0010E036E640EFAEC0EF0010EC8
:101F5000036E210EFAEC0EF0FFD7929CF80E941649
:101F6000FC0E95168B90899C8C928C908B948B9206
:101F7000030E2BEC0FF00D0E056EFC0EE82EFED7B7
:101F8000052EFCD7030E2BEC0FF0850EE82EFED7A6
:101F900000F0030E2BEC0FF0210EE82EFED700F020
:101FA000020E2BEC0FF0210EE82EFED700F0000EF3
:101FB000036E080EFAEC0EF0210EE82EFED700F0AC
:101FC000000E036E010EFAEC0EF0050E056E690EA2
:101FD000E82EFED7052EFCD700F0000E036E060E8D
:101FE000FAEC0EF0210EE82EFED700F0000E036E84
:101FF0000C0EFAEC0EF0210EE82EFED700F01200C7
:020000040020DA
:08000000FFFFFFFFFFFFFFFF00
:020000040030CA
:0E000000FFC80F3F3C9D85FF0FC00FE00F4073
:00000001FF
