:0400000065EF00F0B8
:100008005482FACF46F0FBCF47F0E9CF48F0EACF69
:1000180049F0E1CF4AF0E2CF4BF0D9CF4CF0DACF3C
:100028004DF0F3CF4EF0F4CF4FF0F6CF50F0F7CFBE
:1000380051F0F8CF52F0F5CF53F0F2A224D0014A94
:10004800022A000E2D6E010EAFEC03F0060E456E6F
:10005800300EE82EFED7452EFCD700D0030E376EA3
:10006800000E386E0B0E396E030E3A6E01C03BF06F
:1000780002C03CF088EC01F0030E2F6E000E306ECB
:100088007DEC03F0F29253C0F5FF52C0F8FF51C067
:10009800F7FF50C0F6FF4FC0F4FF4EC0F3FF4DC04E
:1000A800DAFF4CC0D9FF4BC0E2FF4AC0E1FF49C0AC
:1000B800EAFF48C0E9FF47C0FBFF46C0FAFF549279
:0600C8001100C2EF03F07D
:100300000001000A006400E80310272564000000D3
:100310003B0E3E6E000E3F6E8CD0250E4418D8B4B6
:1003200009D037C0D9FF38C0DAFF44C0DFFF374AF1
:10033000382A7FD0000E406E39C0F6FF3AC0F7FF72
:10034000394A3A2A0800F5CF44F04450000AD8B49C
:100350007CD0640AD8B403D00D0AD8A46AD03EC0B9
:10036000D9FF3FC0DAFFDECF42F0DDCF43F0020E0F
:100370003E26000E3F2243AE06D0030E4012426CD2
:10038000431ED8B0432A010E446E050E4418D8B45B
:1003900012D04450020D010EF324F66E030EF42029
:1003A000F76E0900F550425C0900F5504358D8A09B
:1003B00002D0442AEAD740C03DF0030E3D16D8B41F
:1003C00008D037C0D9FF38C0DAFF2D0EDF6E374AAC
:1003D000382A44C041F029D04150020D010EF324C7
:1003E000F66E030EF420F76E0900F5CF2DF00A002B
:1003F000F5CF2EF042C02BF043C02CF00FEC03F0F1
:100400002BC032F02CC033F0000E356E0A0E346E65
:100410005CEC03F03250300F446E37C0D9FF38C067
:10042000DAFF44C0DFFF374A382A41064128D8A402
:10043000D3D739C0F6FF3AC0F7FF394A3A2A080045
:10044000F5CF44F04450D8A468D737C0D9FF38C09E
:10045000DAFF000EDF6E1200929CF80E9416FC0E6E
:1004600095168B90899C8C928C908B948B92030E1A
:1004700085EC02F00D0E0001646FFC0EE82EFED735
:10048000642FFCD7030E85EC02F0850EE82EFED714
:1004900000F0030E85EC02F0210EE82EFED700F0EE
:1004A000020E85EC02F0210EE82EFED700F0000EC1
:1004B0000001626F080E98EC03F0210EE82EFED7C3
:1004C00000F0000E0001626F010E98EC03F0050EC3
:1004D0000001646F690EE82EFED7642FFCD700F090
:1004E000000E0001626F060E98EC03F0210EE82E5C
:1004F000FED700F0000E0001626F0E0E98EC03F0C4
:10050000210EE82EFED700F012000001616F61C0DD
:1005100060F00001D89060330001D8906033000192
:10052000D8906033010E00016017000160478C50C5
:1005300000016019FD0B60198C6E61C060F0000154
:10054000D89060330001D8906033010E000160172D
:100550008C5000016019FE0B60198C6E61C060F058
:100560000001D8906033010E000160170001604760
:1005700060478B5000016019FB0B60198B6E61C0E6
:1005800060F0010E00016017000160478B50000110
:100590006019FD0B60198B6EDCEC03F0030EE82E86
:1005A000FED700F012002C6E2CC02BF0D8902B320E
:1005B000D8902B32D8902B32010E2B162B468C5014
:1005C0002B18FD0B2B188C6E2CC02BF0D8902B32D7
:1005D000D8902B32010E2B168C502B18FE0B2B189B
:1005E0008C6E2CC02BF0D8902B32010E2B162B4684
:1005F0002B468B502B18FB0B2B188B6E2CC02BF023
:10060000010E2B162B468B502B18FD0B2B188B6EC7
:10061000E3EC03F0030EE82EFED700F01200000E0C
:10062000306E000E2F6E2D502E10D8B41CD0010E3F
:10063000316E04D0D8902D362E36312A2EAEFAD710
:10064000D8902F3630362D502B5C2E502C58D8A0F9
:1006500005D02D502B5E2E502C5A2F80D8902E3244
:100660002D32312EEDD72FC02BF030C02CF01200E0
:100670000001646F00016405D8A407D0000E0001DA
:10068000626F800E98EC03F012D0020E0001641924
:10069000D8A407D0000E0001626FC00E98EC03F0E2
:1006A00006D0000E0001626F800E98EC03F0210E60
:1006B000E82EFED700F0120034503510D8B418D010
:1006C000010E366E04D0D89034363536362A35AE23
:1006D000FAD73450325C35503358D8A004D0345057
:1006E000325E3550335AD89035323432362EF1D707
:1006F00032C032F033C033F0120012D0010E2D6E32
:100700002FC0D9FF30C0DAFFDF50AFEC03F02F4A23
:10071000302A820E316EDE0EE82EFED7312EFCD747
:100720002FC0D9FF30C0DAFFDF50D8B41200E6D7AF
:100730000001636F000162B102D0899C01D0898CF5
:10074000000163390F0B85EC02F0060EE82EFED790
:1007500000D0000163510F0B85EC02F012002E6EE9
:100760002DB002D0899C01D0898C2E380F0BD3EC90
:1007700002F0060EE82EFED700D02E500F0BD3EC61
:1007800002F0120000EE01F02A0EEE6AE806FDE12A
:1007900054905492000EF86E0001CFEF03F0720EE9
:1007A000D36ED3A4FED79486F28EF2882CEC02F09E
:1007B000010E38EC03F0FFD78B80030EE82EFED736
:1007C00000F08B9012008B80030EE82EFED700F015
:0407D0008B901200F8
:020000040020DA
:08000000FFFFFFFFFFFFFFFF00
:020000040030CA
:0E000000FFC80F3F3C9D85FF0FC00FE00F4073
:00000001FF
